:100000005AC0000076C0000074C0000072C000003A
:1000100070C000005BC600006CC000006AC0000039
:1000200068C0000066C0000064C0000062C000003C
:1000300060C000005EC000002AC600005AC0000078
:1000400058C0000056C0000054C0000052C000005C
:1000500050C000004EC000004CC000004AC000006C
:1000600048C0000046C0000044C0000042C000007C
:1000700040C000003EC000003CC000003AC000008C
:1000800038C0000036C0000034C000009F00BA0035
:10009000D500F0000B012601430170018B01A60180
:1000A000C101DC01F701140240024202440246028F
:1000B00048024A024C0211241FBECFEFD0E1DEBF3E
:1000C000CDBF11E0A0E0B1E0E2ECF1E100E00BBF58
:1000D00002C007900D92A633B107D9F721E0A6E33D
:1000E000B1E001C01D92AB34B207E1F720D60C9409
:1000F000DF0886CF009731F025E02A95F1F7000060
:100100000197F8CF0895009741F0EFE9FFE03197AC
:10011000F1F700C000000197F6CF0895982F97706F
:10012000E82FE695E695E6954E2F50E047305105CD
:1001300008F0C5C0FA01EA5BFF4F0C94D6084AB339
:10014000662359F021E030E0B90102C0660F771F45
:100150009A95E2F7CB01842B0BC021E030E0B90186
:1001600002C0660F771F9A95E2F7CB018095842332
:100170008ABB089547B3662359F021E030E0B90106
:1001800002C0660F771F9A95E2F7CB01842B0BC054
:1001900021E030E0B90102C0660F771F9A95E2F7BF
:1001A000CB018095842387BB089544B3662359F01F
:1001B00021E030E0B90102C0660F771F9A95E2F79F
:1001C000CB01842B0BC021E030E0B90102C0660FE7
:1001D000771F9A95E2F7CB018095842384BB08951D
:1001E00041B3662359F021E030E0B90102C0660F47
:1001F000771F9A95E2F7CB01842B0BC021E030E00A
:10020000B90102C0660F771F9A95E2F7CB0180957E
:10021000842381BB089542B1662359F021E030E088
:10022000B90102C0660F771F9A95E2F7CB01842BC4
:100230000BC021E030E0B90102C0660F771F9A952C
:10024000E2F7CB018095842382B908954091610043
:10025000662359F021E030E0B90102C0660F771F34
:100260009A95E2F7CB01842B0BC021E030E0B90175
:1002700002C0660F771F9A95E2F7CB018095842321
:1002800080936100089540916400662359F021E055
:1002900030E0B90102C0660F771F9A95E2F7CB01F3
:1002A000842B0BC021E030E0B90102C0660F771F3C
:1002B0009A95E2F7CB01809584238093640008959A
:1002C000982F9770E82FE695E695E6954E2F50E02B
:1002D0004730510508F0C4C0FA01E35BFF4F66C721
:1002E0004BB3662359F021E030E0B90102C0660F3C
:1002F000771F9A95E2F7CB01842B0BC021E030E009
:10030000B90102C0660F771F9A95E2F7CB0180957D
:1003100084238BBB089548B3662359F021E030E075
:10032000B90102C0660F771F9A95E2F7CB01842BC3
:100330000BC021E030E0B90102C0660F771F9A952B
:10034000E2F7CB018095842388BB089545B36623EB
:1003500059F021E030E0B90102C0660F771F9A958D
:10036000E2F7CB01842B0BC021E030E0B90102C0E1
:10037000660F771F9A95E2F7CB018095842385BBA2
:10038000089542B3662359F021E030E0B90102C07C
:10039000660F771F9A95E2F7CB01842B0BC021E003
:1003A00030E0B90102C0660F771F9A95E2F7CB01E2
:1003B0008095842382BB089543B1662359F021E0E0
:1003C00030E0B90102C0660F771F9A95E2F7CB01C2
:1003D000842B0BC021E030E0B90102C0660F771F0B
:1003E0009A95E2F7CB018095842383B908954091D3
:1003F0006200662359F021E030E0B90102C0660FC7
:10040000771F9A95E2F7CB01842B0BC021E030E0F7
:10041000B90102C0660F771F9A95E2F7CB0180956C
:10042000842380936200089540916500662359F00B
:1004300021E030E0B90102C0660F771F9A95E2F71C
:10044000CB01842B0BC021E030E0B90102C0660F64
:10045000771F9A95E2F7CB018095842380936500FE
:100460000895282F2770E82FE695E695E6958E2FBC
:1004700090E087309105D0F4FC01EC5AFF4F96C60E
:1004800089B30CC086B30AC083B308C080B306C06A
:1004900081B104C080B102C08091630090E002C0CD
:1004A000959587952A95E2F78170089580E00895E3
:1004B0000F931F93CF93C82F84FB662760F90BE33C
:1004C00011E0F8018285FCDEC5FB662760F9F801C2
:1004D0008385F6DEC6FB662760F9F8018485F0DEC9
:1004E0006C2F661F6627661FF8018585CF911F91C7
:1004F0000F91E6CECF93DF93CBE3D1E060E08B8129
:10050000DFDE60E08C81DCDE61E08D81D9DE8AE0B7
:1005100090E0F0DD60E08D81DF91CF91D1CE0F933F
:100520001F93CF93C82F682F61700BE311E0F80180
:100530008681C6DEC1FB662760F9F8018781C0DECF
:10054000C2FB662760F9F8018085BADEC3FB662727
:1005500060F9F8018185CF911F910F91B1CECF93B2
:10056000DF93CBE3D1E061E08B81AADE60E08C8198
:10057000A7DE61E08D81A4DE8AE090E0BBDD60E073
:100580008D81DF91CF919CCECF9380913F018F3FA2
:1005900009F437C060E080914801C0DD60E08091DF
:1005A0003E018EDE61E080913F018ADE60E0809155
:1005B000400186DE8AE090E09DDD61E080914001AF
:1005C0007FDE8AE090E096DD809148014ADFC82F07
:1005D00080913D01843071F460E08091400170DED3
:1005E0008AE090E087DD61E08091400169DE8AE089
:1005F00090E080DDC111DACF61E080914801CF91B8
:100600008DCD81E090E0CF917ECD8F929F92AF9281
:10061000BF92CF92DF92EF92FF920F931F93CF93EF
:10062000DF93CDB7DEB7982EB62ED42E822FFF845F
:10063000188990923E0160933F01409340012093BE
:10064000410100934201E0924301C0924401A09213
:10065000450180924601F0924701109348012F3FD7
:1006600039F00F3F29F09FEFE91611F0C91204C0CD
:1006700084E080933D010EC098E090933D0161E0DD
:100680004DDD61E0802F4ADD61E08E2D47DD61E0C8
:100690008C2D44DD61E0892D41DD61E08B2D3EDD57
:1006A00061E08D2D3BDD61E08A2D38DD61E0882D34
:1006B00035DD61E08F2D32DD61E0812FDF91CF915B
:1006C0001F910F91FF90EF90DF90CF90BF90AF9070
:1006D0009F908F9023CDCF93C82F56DF80913D01FF
:1006E000883019F48C2F1BDF05C08C2FE1DE02DF70
:1006F000C295C07F8C2FDCDECF91FCCE90913B0168
:10070000891750F41092490180934A01E82FF0E0D4
:10071000E050FF4F8081DFCF089581E0DCDF80E093
:10072000EDCF60933C0180933B01833040F06F70CC
:1007300080E9860F8093020160536093030184E691
:1007400090E0E1DC80913D01883011F488E31BC02A
:100750008430D1F480E3ACDECDDE84E690E0D3DCFF
:1007600080E3A6DEC7DE88EC90E0C4DC80E3A0DE98
:10077000C1DE88EC90E0BEDC80E29ADEBBDE88EC75
:1007800090E0B8DC88E2A7DF8EE0A5DFC6CF8091DD
:100790004A018F5F80934A011092490190913B0179
:1007A000891710F010924A01E0914A01F0E0E05000
:1007B000FF4F808190CFCF93C82F90913C018091C3
:1007C0004901891750F4CA3041F0DEDE80913D01C5
:1007D000883039F48C2FA3DE09C0D9DFCA3071F01C
:1007E000F4CF8C2F65DEBBDEC295C07F8C2F60DE20
:1007F000B6DE809149018F5F80934901CF910895C2
:10080000CF92DF92EF92FF921F93CF93DF936B0112
:100810007C01142FC1E0D0E01123D1F08FEF810FC4
:10082000AE0102C0440F551F8A95E2F7052E000C59
:10083000660B770B4C215D216E217F2181E0452BDA
:10084000462B472B09F480E0805DB5DF1150E4CFE3
:10085000DF91CF911F91FF90EF90DF90CF9008959F
:10086000CF93DF93EC018991882311F0A4DFFBCFB4
:10087000DF91CF9108958F929F92AF92BF92CF92C6
:10088000DF92EF92FF920F931F93CF93DF93CDB739
:10089000DEB72A970FB6F894DEBF0FBECDBFD82EB5
:1008A000CB01BA01022F22E0D21214C0402F2A96A7
:1008B0000FB6F894DEBF0FBECDBFDF91CF911F9171
:1008C0000F91FF90EF90DF90CF90BF90AF909F90EF
:1008D0008F9096CF611571058105910549F0FE0154
:1008E00031967F0110E08D2C912CA12CB12C28C0C9
:1008F00080E32A960FB6F894DEBF0FBECDBFDF911E
:10090000CF911F910F91FF90EF90DF90CF90BF900C
:10091000AF909F908F904FCF611571058105910524
:1009200091F0C62EA50194011FD4CA01B901D29E2F
:10093000C0181124F701C0821F5FFFEFEF1AFF0AF2
:100940001013EACF0EC00B3060F4F7011082F4CF21
:10095000FE01E10FF11D80818A3030F0895C2BDFD0
:1009600011501111F5CF02C0805DF9CF2A960FB654
:10097000F894DEBF0FBECDBFDF91CF911F910F91D5
:10098000FF90EF90DF90CF90BF90AF909F908F90AF
:1009900008958F929F92AF92BF92CF92DF92EF9283
:1009A000FF926B017C01C3D24B015C012FEFAB01C5
:1009B000BC018AE060DF8EE2FEDEC501B401E3D255
:1009C0009B01AC01C701B6014DD220E034E244E7FF
:1009D00059E467D3ACD2AB01BC012FEF8AE0FF90A2
:1009E000EF90DF90CF90BF90AF909F908F9043CFCC
:1009F0004F925F926F927F92AF92BF92CF92DF92AF
:100A0000FF920F931F93CF93DF93CDB7DEB7FE0115
:100A10007096A190B1908F01F5018081882309F42F
:100A200028C1853209F00CC165012FEFC21AD20A24
:100A3000F501818190ED980F9A3008F0B1C0F12C4A
:100A400090ED980F9A3058F4FAE0FF9E900D112423
:100A5000F92E2FEFC21AD20AF6018081F1CF883524
:100A600009F4A3C070F4843409F44DC018F482343E
:100A7000D9F4BCC0833509F4D9C0853509F475C0F3
:100A8000C6C0863609F4C5C040F4833681F084368A
:100A900019F1823609F0D6C09AC0853709F450C0E2
:100AA000883709F473C0C0C0833408F4DDC058012E
:100AB000F2E0AF0EB11CF80180817DDEBFC0893548
:100AC000F0F0863609F4A5C0B8F5833681F3843694
:100AD00009F078C0FF24FA945801F2E0AF0EB11C7F
:100AE000F8010081118117FF05C0119501951109C9
:100AF0008DE261DEA801110F660B770B3FC08434D5
:100B000049F5FF24FA945801F4E0AF0EB11CF80146
:100B1000408051806280738077FE0AC07094609438
:100B200050944094411C511C611C711C8DE243DEA9
:100B30002F2DB301A20123C0853719F5FF24FA94A4
:100B40005801F2E0AF0EB11CF8014081518160E024
:100B500070E014C0853408F47AC0833509F466C0A7
:100B6000853509F054C0FF24FA945801F4E0AF0E23
:100B7000B11CF80140815181628173812F2D8AE07F
:100B80001FC0883709F050C0FF24FA945801F2E0E2
:100B9000AF0EB11CF8014081518160E070E00EC0E1
:100BA000883509F08CCFFF24FA945801F4E0AF0E99
:100BB000B11CF80140815181628173812F2D80E148
:100BC0005ADE3CC0823609F03DC0FF24FA94580139
:100BD000F2E0AF0EB11CF80160817181FFEFFF12EE
:100BE00002C030E1F32E80E090E00EC0580124E016
:100BF000A20EB11CF8016081718182819381FFEFA7
:100C0000FF1202C020E1F22E4F2DFADD17C086340C
:100C1000C9F4580124E0A20EB11CF8016081718171
:100C200082819381B6DE0AC0833761F45801F2E015
:100C3000AF0EB11CF8018081918112DE850102C0E6
:100C4000BADD65015601FFEFAF1ABF0AE5CE823467
:100C500009F02ACF5801F4E0AF0EB11CF801608111
:100C6000718182819381CECF853261F785E2A3DDE8
:100C7000E9CFDF91CF911F910F91FF90DF90CF903F
:100C8000BF90AF907F906F905F904F9008951F92AC
:100C90000F920FB60F9211248F939F93809138017A
:100CA000882349F08091390190913A0101969093FF
:100CB0003A018093390183EF8DBD8BEC8CBD9F9100
:100CC0008F910F900FBE0F901F9018951F920F924B
:100CD0000FB60F9211240BB60F922F933F934F93A1
:100CE0005F936F937F938F939F93AF93BF93EF9394
:100CF000FF9313DD86E091E09F938F9379DE81E08F
:100D0000809337010F900F90FF91EF91BF91AF91BA
:100D10009F918F917F916F915F914F913F912F9113
:100D20000F900BBE0F900FBE0F901F9018951FBC19
:100D300084E08EBD93EF9DBD9BEC9CBD87BFA49AC4
:100D4000AC9AA59814988AB782608ABF80E189BF5F
:100D500078948FE08F938EE08F938DE0882E9CE0C7
:100D6000A92ECC24CA94EE24EA940FEF2FEF4AE088
:100D700069E088E04ADC60E182E0D3DC80E191E078
:100D80009F938F9335DE89E191E09F938F9330DEBF
:100D90000F900F900F900F900F900F90C1E006E210
:100DA00011E02CE2E22E21E0F22ECC24C394D12CCF
:100DB0009D9909C080913601811105C0AC98C093FE
:100DC0003801C09336019D9B07C08091360188236E
:100DD00019F0AC9A109236012091390130913A0104
:100DE000809104019091050128173907A1F08091A5
:100DF0003701811110C09D990EC08FDC809139019F
:100E000090913A019F938F931F930F93F1DD0F9071
:100E10000F900F900F90809137018823D1F07DDCE7
:100E20008091390190913A019F938F93FF92EF92B5
:100E3000DFDD109237011092380110923A011092C2
:100E40003901D0920501C09204010F900F900F90CC
:100E50000F908091390190913A0190930501809310
:100E60000401A6CF5058BB27AA270ED0E0C0D1D08E
:100E700030F0D6D020F031F49F3F11F41EF4C6C0FC
:100E80000EF4E095E7FBBCC0E92FE2D080F3BA177F
:100E9000620773078407950718F071F49EF5FAC08E
:100EA0000EF4E0950B2EBA2FA02D0B01B901900185
:100EB0000C01CA01A0011124FF27591B99F0593FC9
:100EC00050F4503E68F11A16F040A22F232F342F11
:100ED0004427585FF3CF469537952795A795F0405F
:100EE0005395C9F77EF41F16BA0B620B730B840B74
:100EF000BAF09150A1F0FF0FBB1F661F771F881F2C
:100F0000C2F70EC0BA0F621F731F841F48F4879583
:100F100077956795B795F7959E3F08F0B3CF939572
:100F2000880F08F09927EE0F97958795089598D028
:100F300088F09F5790F0B92F9927B751A0F0D1F0C2
:100F4000660F771F881F991F1AF0BA95C9F712C04C
:100F5000B13081F09FD0B1E008959CC0672F782F09
:100F60008827B85F39F0B93FCCF3869577956795B8
:100F7000B395D9F73EF490958095709561957F4F24
:100F80008F4F9F4F0895E89409C097FB3EF49095CA
:100F90008095709561957F4F8F4F9F4F9923A9F052
:100FA000F92F96E9BB279395F695879577956795E1
:100FB000B795F111F8CFFAF4BB0F11F460FF1BC025
:100FC0006F5F7F4F8F4F9F4F16C0882311F096E9B8
:100FD00011C0772321F09EE8872F762F05C0662366
:100FE00071F096E8862F70E060E02AF09A95660F1F
:100FF000771F881FDAF7880F9695879597F90895D8
:1010000097F99F6780E870E060E008959FEF80ECBB
:10101000089500240A94161617061806090608955E
:1010200000240A9412161306140605060895092EC4
:101030000394000C11F4882352F0BB0F40F4BF2B33
:1010400011F460FF04C06F5F7F4F8F4F9F4F089573
:1010500057FD9058440F551F59F05F3F71F0479569
:10106000880F97FB991F61F09F3F79F0879508954E
:10107000121613061406551FF2CF4695F1DF08C06D
:10108000161617061806991FF1CF8695710561058A
:1010900008940895E894BB2766277727CB0197F932
:1010A00008950BD0C4CFB5DF28F0BADF18F0952330
:1010B00009F0A6CFABCF1124EECFCADFA0F3959FE6
:1010C000D1F3950F50E0551F629FF001729FBB272F
:1010D000F00DB11D639FAA27F00DB11DAA1F649FDB
:1010E0006627B00DA11D661F829F2227B00DA11D8E
:1010F000621F739FB00DA11D621F839FA00D611D14
:10110000221F749F3327A00D611D231F849F600D34
:10111000211D822F762F6A2F11249F5750408AF06D
:10112000E1F088234AF0EE0FFF1FBB1F661F771FF9
:10113000881F91505040A9F79E3F510570F060CF35
:10114000AACF5F3FECF3983EDCF3869577956795E1
:10115000B795F795E7959F5FC1F7FE2B880F911D17
:101160009695879597F90895A1E21A2EAA1BBB1BA5
:10117000FD010DC0AA1FBB1FEE1FFF1FA217B30763
:10118000E407F50720F0A21BB30BE40BF50B661F79
:10119000771F881F991F1A9469F76095709580953D
:1011A00090959B01AC01BD01CF010895EE0FFF1F8B
:1011B0000024001C0BBE0790F691E02D0994F894D2
:0211C000FFCF5F
:1011C20080C090D00100496E7465727275707400AF
:1011D20050726F6A6563740A0049443A20333039A9
:1011E2003332303934002564206D73004C617374DE
:0611F2002025646D73006E
:00000001FF
